{
  "contractName": "BisonSolo",
  "abi": [
    {
      "inputs": [
        {
          "internalType": "string",
          "name": "_name",
          "type": "string"
        },
        {
          "internalType": "string",
          "name": "_symbol",
          "type": "string"
        },
        {
          "internalType": "uint256",
          "name": "_cost",
          "type": "uint256"
        },
        {
          "internalType": "uint256",
          "name": "_maxSupply",
          "type": "uint256"
        },
        {
          "internalType": "uint256",
          "name": "_allowMintingOn",
          "type": "uint256"
        },
        {
          "internalType": "string",
          "name": "_initBaseURI",
          "type": "string"
        },
        {
          "internalType": "string",
          "name": "_initNotRevealedUri",
          "type": "string"
        }
      ],
      "stateMutability": "nonpayable",
      "type": "constructor"
    },
    {
      "anonymous": false,
      "inputs": [
        {
          "indexed": true,
          "internalType": "address",
          "name": "owner",
          "type": "address"
        },
        {
          "indexed": true,
          "internalType": "address",
          "name": "approved",
          "type": "address"
        },
        {
          "indexed": true,
          "internalType": "uint256",
          "name": "tokenId",
          "type": "uint256"
        }
      ],
      "name": "Approval",
      "type": "event"
    },
    {
      "anonymous": false,
      "inputs": [
        {
          "indexed": true,
          "internalType": "address",
          "name": "owner",
          "type": "address"
        },
        {
          "indexed": true,
          "internalType": "address",
          "name": "operator",
          "type": "address"
        },
        {
          "indexed": false,
          "internalType": "bool",
          "name": "approved",
          "type": "bool"
        }
      ],
      "name": "ApprovalForAll",
      "type": "event"
    },
    {
      "anonymous": false,
      "inputs": [
        {
          "indexed": true,
          "internalType": "address",
          "name": "previousOwner",
          "type": "address"
        },
        {
          "indexed": true,
          "internalType": "address",
          "name": "newOwner",
          "type": "address"
        }
      ],
      "name": "OwnershipTransferred",
      "type": "event"
    },
    {
      "anonymous": false,
      "inputs": [
        {
          "indexed": true,
          "internalType": "address",
          "name": "from",
          "type": "address"
        },
        {
          "indexed": true,
          "internalType": "address",
          "name": "to",
          "type": "address"
        },
        {
          "indexed": true,
          "internalType": "uint256",
          "name": "tokenId",
          "type": "uint256"
        }
      ],
      "name": "Transfer",
      "type": "event"
    },
    {
      "inputs": [],
      "name": "allowMintingAfter",
      "outputs": [
        {
          "internalType": "uint256",
          "name": "",
          "type": "uint256"
        }
      ],
      "stateMutability": "view",
      "type": "function",
      "constant": true
    },
    {
      "inputs": [
        {
          "internalType": "address",
          "name": "to",
          "type": "address"
        },
        {
          "internalType": "uint256",
          "name": "tokenId",
          "type": "uint256"
        }
      ],
      "name": "approve",
      "outputs": [],
      "stateMutability": "nonpayable",
      "type": "function"
    },
    {
      "inputs": [
        {
          "internalType": "address",
          "name": "owner",
          "type": "address"
        }
      ],
      "name": "balanceOf",
      "outputs": [
        {
          "internalType": "uint256",
          "name": "",
          "type": "uint256"
        }
      ],
      "stateMutability": "view",
      "type": "function",
      "constant": true
    },
    {
      "inputs": [],
      "name": "baseExtension",
      "outputs": [
        {
          "internalType": "string",
          "name": "",
          "type": "string"
        }
      ],
      "stateMutability": "view",
      "type": "function",
      "constant": true
    },
    {
      "inputs": [],
      "name": "cost",
      "outputs": [
        {
          "internalType": "uint256",
          "name": "",
          "type": "uint256"
        }
      ],
      "stateMutability": "view",
      "type": "function",
      "constant": true
    },
    {
      "inputs": [
        {
          "internalType": "uint256",
          "name": "tokenId",
          "type": "uint256"
        }
      ],
      "name": "getApproved",
      "outputs": [
        {
          "internalType": "address",
          "name": "",
          "type": "address"
        }
      ],
      "stateMutability": "view",
      "type": "function",
      "constant": true
    },
    {
      "inputs": [
        {
          "internalType": "address",
          "name": "owner",
          "type": "address"
        },
        {
          "internalType": "address",
          "name": "operator",
          "type": "address"
        }
      ],
      "name": "isApprovedForAll",
      "outputs": [
        {
          "internalType": "bool",
          "name": "",
          "type": "bool"
        }
      ],
      "stateMutability": "view",
      "type": "function",
      "constant": true
    },
    {
      "inputs": [],
      "name": "isPaused",
      "outputs": [
        {
          "internalType": "bool",
          "name": "",
          "type": "bool"
        }
      ],
      "stateMutability": "view",
      "type": "function",
      "constant": true
    },
    {
      "inputs": [],
      "name": "isRevealed",
      "outputs": [
        {
          "internalType": "bool",
          "name": "",
          "type": "bool"
        }
      ],
      "stateMutability": "view",
      "type": "function",
      "constant": true
    },
    {
      "inputs": [],
      "name": "maxMintAmount",
      "outputs": [
        {
          "internalType": "uint256",
          "name": "",
          "type": "uint256"
        }
      ],
      "stateMutability": "view",
      "type": "function",
      "constant": true
    },
    {
      "inputs": [],
      "name": "maxSupply",
      "outputs": [
        {
          "internalType": "uint256",
          "name": "",
          "type": "uint256"
        }
      ],
      "stateMutability": "view",
      "type": "function",
      "constant": true
    },
    {
      "inputs": [],
      "name": "name",
      "outputs": [
        {
          "internalType": "string",
          "name": "",
          "type": "string"
        }
      ],
      "stateMutability": "view",
      "type": "function",
      "constant": true
    },
    {
      "inputs": [],
      "name": "notRevealedUri",
      "outputs": [
        {
          "internalType": "string",
          "name": "",
          "type": "string"
        }
      ],
      "stateMutability": "view",
      "type": "function",
      "constant": true
    },
    {
      "inputs": [],
      "name": "owner",
      "outputs": [
        {
          "internalType": "address",
          "name": "",
          "type": "address"
        }
      ],
      "stateMutability": "view",
      "type": "function",
      "constant": true
    },
    {
      "inputs": [
        {
          "internalType": "uint256",
          "name": "tokenId",
          "type": "uint256"
        }
      ],
      "name": "ownerOf",
      "outputs": [
        {
          "internalType": "address",
          "name": "",
          "type": "address"
        }
      ],
      "stateMutability": "view",
      "type": "function",
      "constant": true
    },
    {
      "inputs": [],
      "name": "renounceOwnership",
      "outputs": [],
      "stateMutability": "nonpayable",
      "type": "function"
    },
    {
      "inputs": [
        {
          "internalType": "address",
          "name": "from",
          "type": "address"
        },
        {
          "internalType": "address",
          "name": "to",
          "type": "address"
        },
        {
          "internalType": "uint256",
          "name": "tokenId",
          "type": "uint256"
        }
      ],
      "name": "safeTransferFrom",
      "outputs": [],
      "stateMutability": "nonpayable",
      "type": "function"
    },
    {
      "inputs": [
        {
          "internalType": "address",
          "name": "from",
          "type": "address"
        },
        {
          "internalType": "address",
          "name": "to",
          "type": "address"
        },
        {
          "internalType": "uint256",
          "name": "tokenId",
          "type": "uint256"
        },
        {
          "internalType": "bytes",
          "name": "data",
          "type": "bytes"
        }
      ],
      "name": "safeTransferFrom",
      "outputs": [],
      "stateMutability": "nonpayable",
      "type": "function"
    },
    {
      "inputs": [
        {
          "internalType": "address",
          "name": "operator",
          "type": "address"
        },
        {
          "internalType": "bool",
          "name": "approved",
          "type": "bool"
        }
      ],
      "name": "setApprovalForAll",
      "outputs": [],
      "stateMutability": "nonpayable",
      "type": "function"
    },
    {
      "inputs": [
        {
          "internalType": "bytes4",
          "name": "interfaceId",
          "type": "bytes4"
        }
      ],
      "name": "supportsInterface",
      "outputs": [
        {
          "internalType": "bool",
          "name": "",
          "type": "bool"
        }
      ],
      "stateMutability": "view",
      "type": "function",
      "constant": true
    },
    {
      "inputs": [],
      "name": "symbol",
      "outputs": [
        {
          "internalType": "string",
          "name": "",
          "type": "string"
        }
      ],
      "stateMutability": "view",
      "type": "function",
      "constant": true
    },
    {
      "inputs": [],
      "name": "timeDeployed",
      "outputs": [
        {
          "internalType": "uint256",
          "name": "",
          "type": "uint256"
        }
      ],
      "stateMutability": "view",
      "type": "function",
      "constant": true
    },
    {
      "inputs": [
        {
          "internalType": "uint256",
          "name": "index",
          "type": "uint256"
        }
      ],
      "name": "tokenByIndex",
      "outputs": [
        {
          "internalType": "uint256",
          "name": "",
          "type": "uint256"
        }
      ],
      "stateMutability": "view",
      "type": "function",
      "constant": true
    },
    {
      "inputs": [
        {
          "internalType": "address",
          "name": "owner",
          "type": "address"
        },
        {
          "internalType": "uint256",
          "name": "index",
          "type": "uint256"
        }
      ],
      "name": "tokenOfOwnerByIndex",
      "outputs": [
        {
          "internalType": "uint256",
          "name": "",
          "type": "uint256"
        }
      ],
      "stateMutability": "view",
      "type": "function",
      "constant": true
    },
    {
      "inputs": [],
      "name": "totalSupply",
      "outputs": [
        {
          "internalType": "uint256",
          "name": "",
          "type": "uint256"
        }
      ],
      "stateMutability": "view",
      "type": "function",
      "constant": true
    },
    {
      "inputs": [
        {
          "internalType": "address",
          "name": "from",
          "type": "address"
        },
        {
          "internalType": "address",
          "name": "to",
          "type": "address"
        },
        {
          "internalType": "uint256",
          "name": "tokenId",
          "type": "uint256"
        }
      ],
      "name": "transferFrom",
      "outputs": [],
      "stateMutability": "nonpayable",
      "type": "function"
    },
    {
      "inputs": [
        {
          "internalType": "address",
          "name": "newOwner",
          "type": "address"
        }
      ],
      "name": "transferOwnership",
      "outputs": [],
      "stateMutability": "nonpayable",
      "type": "function"
    },
    {
      "inputs": [
        {
          "internalType": "uint256",
          "name": "_mintAmount",
          "type": "uint256"
        }
      ],
      "name": "mint",
      "outputs": [],
      "stateMutability": "payable",
      "type": "function",
      "payable": true
    },
    {
      "inputs": [
        {
          "internalType": "address",
          "name": "_owner",
          "type": "address"
        }
      ],
      "name": "walletOfOwner",
      "outputs": [
        {
          "internalType": "uint256[]",
          "name": "",
          "type": "uint256[]"
        }
      ],
      "stateMutability": "view",
      "type": "function",
      "constant": true
    },
    {
      "inputs": [
        {
          "internalType": "uint256",
          "name": "tokenId",
          "type": "uint256"
        }
      ],
      "name": "tokenURI",
      "outputs": [
        {
          "internalType": "string",
          "name": "",
          "type": "string"
        }
      ],
      "stateMutability": "view",
      "type": "function",
      "constant": true
    },
    {
      "inputs": [],
      "name": "getSecondsUntilMinting",
      "outputs": [
        {
          "internalType": "uint256",
          "name": "",
          "type": "uint256"
        }
      ],
      "stateMutability": "view",
      "type": "function",
      "constant": true
    },
    {
      "inputs": [
        {
          "internalType": "bool",
          "name": "_state",
          "type": "bool"
        }
      ],
      "name": "setIsRevealed",
      "outputs": [],
      "stateMutability": "nonpayable",
      "type": "function"
    },
    {
      "inputs": [
        {
          "internalType": "uint256",
          "name": "_newCost",
          "type": "uint256"
        }
      ],
      "name": "setCost",
      "outputs": [],
      "stateMutability": "nonpayable",
      "type": "function"
    },
    {
      "inputs": [
        {
          "internalType": "uint256",
          "name": "_newmaxMintAmount",
          "type": "uint256"
        }
      ],
      "name": "setmaxMintAmount",
      "outputs": [],
      "stateMutability": "nonpayable",
      "type": "function"
    },
    {
      "inputs": [
        {
          "internalType": "string",
          "name": "_notRevealedURI",
          "type": "string"
        }
      ],
      "name": "setNotRevealedURI",
      "outputs": [],
      "stateMutability": "nonpayable",
      "type": "function"
    },
    {
      "inputs": [
        {
          "internalType": "string",
          "name": "_newBaseURI",
          "type": "string"
        }
      ],
      "name": "setBaseURI",
      "outputs": [],
      "stateMutability": "nonpayable",
      "type": "function"
    },
    {
      "inputs": [
        {
          "internalType": "string",
          "name": "_newBaseExtension",
          "type": "string"
        }
      ],
      "name": "setBaseExtension",
      "outputs": [],
      "stateMutability": "nonpayable",
      "type": "function"
    },
    {
      "inputs": [
        {
          "internalType": "bool",
          "name": "_state",
          "type": "bool"
        }
      ],
      "name": "setIsPaused",
      "outputs": [],
      "stateMutability": "nonpayable",
      "type": "function"
    },
    {
      "inputs": [],
      "name": "withdraw",
      "outputs": [],
      "stateMutability": "payable",
      "type": "function",
      "payable": true
    }
  ],
  "bytecode": "0x60806040526040518060400160405280600581526020017f2e6a736f6e000000000000000000000000000000000000000000000000000000815250600c9080519060200190620000519291906200035e565b506003600f5560006011556000601260006101000a81548160ff0219169083151502179055506001601260016101000a81548160ff0219169083151502179055503480156200009f57600080fd5b506040516200496d3803806200496d8339818101604052810190620000c59190620005e6565b86868160009080519060200190620000df9291906200035e565b508060019080519060200190620000f89291906200035e565b5050506200011b6200010f6200017d60201b60201c565b6200018560201b60201c565b428311156200013957428362000132919062000744565b6011819055505b84600d8190555083600e81905550426010819055506200015f826200024b60201b60201c565b62000170816200027760201b60201c565b5050505050505062000867565b600033905090565b6000600a60009054906101000a900473ffffffffffffffffffffffffffffffffffffffff16905081600a60006101000a81548173ffffffffffffffffffffffffffffffffffffffff021916908373ffffffffffffffffffffffffffffffffffffffff1602179055508173ffffffffffffffffffffffffffffffffffffffff168173ffffffffffffffffffffffffffffffffffffffff167f8be0079c531659141344cd1fd0a4f28419497f9722a3daafe3b4186f6b6457e060405160405180910390a35050565b6200025b620002a360201b60201c565b80600b9080519060200190620002739291906200035e565b5050565b62000287620002a360201b60201c565b80601390805190602001906200029f9291906200035e565b5050565b620002b36200017d60201b60201c565b73ffffffffffffffffffffffffffffffffffffffff16620002d96200033460201b60201c565b73ffffffffffffffffffffffffffffffffffffffff161462000332576040517f08c379a00000000000000000000000000000000000000000000000000000000081526004016200032990620007e0565b60405180910390fd5b565b6000600a60009054906101000a900473ffffffffffffffffffffffffffffffffffffffff16905090565b8280546200036c9062000831565b90600052602060002090601f016020900481019282620003905760008555620003dc565b82601f10620003ab57805160ff1916838001178555620003dc565b82800160010185558215620003dc579182015b82811115620003db578251825591602001919060010190620003be565b5b509050620003eb9190620003ef565b5090565b5b808211156200040a576000816000905550600101620003f0565b5090565b6000604051905090565b600080fd5b600080fd5b600080fd5b600080fd5b6000601f19601f8301169050919050565b7f4e487b7100000000000000000000000000000000000000000000000000000000600052604160045260246000fd5b62000477826200042c565b810181811067ffffffffffffffff821117156200049957620004986200043d565b5b80604052505050565b6000620004ae6200040e565b9050620004bc82826200046c565b919050565b600067ffffffffffffffff821115620004df57620004de6200043d565b5b620004ea826200042c565b9050602081019050919050565b60005b8381101562000517578082015181840152602081019050620004fa565b8381111562000527576000848401525b50505050565b6000620005446200053e84620004c1565b620004a2565b90508281526020810184848401111562000563576200056262000427565b5b62000570848285620004f7565b509392505050565b600082601f83011262000590576200058f62000422565b5b8151620005a28482602086016200052d565b91505092915050565b6000819050919050565b620005c081620005ab565b8114620005cc57600080fd5b50565b600081519050620005e081620005b5565b92915050565b600080600080600080600060e0888a03121562000608576200060762000418565b5b600088015167ffffffffffffffff8111156200062957620006286200041d565b5b620006378a828b0162000578565b975050602088015167ffffffffffffffff8111156200065b576200065a6200041d565b5b620006698a828b0162000578565b96505060406200067c8a828b01620005cf565b95505060606200068f8a828b01620005cf565b9450506080620006a28a828b01620005cf565b93505060a088015167ffffffffffffffff811115620006c657620006c56200041d565b5b620006d48a828b0162000578565b92505060c088015167ffffffffffffffff811115620006f857620006f76200041d565b5b620007068a828b0162000578565b91505092959891949750929550565b7f4e487b7100000000000000000000000000000000000000000000000000000000600052601160045260246000fd5b60006200075182620005ab565b91506200075e83620005ab565b92508282101562000774576200077362000715565b5b828203905092915050565b600082825260208201905092915050565b7f4f776e61626c653a2063616c6c6572206973206e6f7420746865206f776e6572600082015250565b6000620007c86020836200077f565b9150620007d58262000790565b602082019050919050565b60006020820190508181036000830152620007fb81620007b9565b9050919050565b7f4e487b7100000000000000000000000000000000000000000000000000000000600052602260045260246000fd5b600060028204905060018216806200084a57607f821691505b6020821081141562000861576200086062000802565b5b50919050565b6140f680620008776000396000f3fe6080604052600436106102305760003560e01c806355f804b31161012e578063a75052cb116100ab578063d5abeb011161006f578063d5abeb0114610823578063da3ef23f1461084e578063e985e9c514610877578063f2c4ce1e146108b4578063f2fde38b146108dd57610230565b8063a75052cb1461073c578063b187bd2614610767578063b88d4fde14610792578063c6682862146107bb578063c87b56dd146107e657610230565b8063872bdcdb116100f2578063872bdcdb146106765780638da5cb5b146106a157806395d89b41146106cc578063a0712d68146106f7578063a22cb4651461071357610230565b806355f804b3146105935780636352211e146105bc57806370a08231146105f9578063715018a6146106365780637f00c7a61461064d57610230565b806323b872dd116101bc578063438b630011610180578063438b63001461049c57806344a0d68a146104d957806349a5980a146105025780634f6ccce71461052b57806354214f691461056857610230565b806323b872dd146103da578063240976bf146104035780632f745c591461042c5780633ccfd60b1461046957806342842e0e1461047357610230565b8063095ea7b311610203578063095ea7b31461030557806313faede61461032e57806318160ddd1461035957806319188c3514610384578063239c70ae146103af57610230565b806301ffc9a71461023557806306fdde0314610272578063081812fc1461029d578063081c8c44146102da575b600080fd5b34801561024157600080fd5b5061025c60048036038101906102579190612b62565b610906565b6040516102699190612baa565b60405180910390f35b34801561027e57600080fd5b50610287610980565b6040516102949190612c5e565b60405180910390f35b3480156102a957600080fd5b506102c460048036038101906102bf9190612cb6565b610a12565b6040516102d19190612d24565b60405180910390f35b3480156102e657600080fd5b506102ef610a58565b6040516102fc9190612c5e565b60405180910390f35b34801561031157600080fd5b5061032c60048036038101906103279190612d6b565b610ae6565b005b34801561033a57600080fd5b50610343610bfe565b6040516103509190612dba565b60405180910390f35b34801561036557600080fd5b5061036e610c04565b60405161037b9190612dba565b60405180910390f35b34801561039057600080fd5b50610399610c11565b6040516103a69190612dba565b60405180910390f35b3480156103bb57600080fd5b506103c4610c17565b6040516103d19190612dba565b60405180910390f35b3480156103e657600080fd5b5061040160048036038101906103fc9190612dd5565b610c1d565b005b34801561040f57600080fd5b5061042a60048036038101906104259190612e54565b610c7d565b005b34801561043857600080fd5b50610453600480360381019061044e9190612d6b565b610ca2565b6040516104609190612dba565b60405180910390f35b610471610d47565b005b34801561047f57600080fd5b5061049a60048036038101906104959190612dd5565b610dc8565b005b3480156104a857600080fd5b506104c360048036038101906104be9190612e81565b610de8565b6040516104d09190612f6c565b60405180910390f35b3480156104e557600080fd5b5061050060048036038101906104fb9190612cb6565b610e96565b005b34801561050e57600080fd5b5061052960048036038101906105249190612e54565b610ea8565b005b34801561053757600080fd5b50610552600480360381019061054d9190612cb6565b610ecd565b60405161055f9190612dba565b60405180910390f35b34801561057457600080fd5b5061057d610f3e565b60405161058a9190612baa565b60405180910390f35b34801561059f57600080fd5b506105ba60048036038101906105b591906130c3565b610f51565b005b3480156105c857600080fd5b506105e360048036038101906105de9190612cb6565b610f73565b6040516105f09190612d24565b60405180910390f35b34801561060557600080fd5b50610620600480360381019061061b9190612e81565b611025565b60405161062d9190612dba565b60405180910390f35b34801561064257600080fd5b5061064b6110dd565b005b34801561065957600080fd5b50610674600480360381019061066f9190612cb6565b6110f1565b005b34801561068257600080fd5b5061068b611103565b6040516106989190612dba565b60405180910390f35b3480156106ad57600080fd5b506106b6611109565b6040516106c39190612d24565b60405180910390f35b3480156106d857600080fd5b506106e1611133565b6040516106ee9190612c5e565b60405180910390f35b610711600480360381019061070c9190612cb6565b6111c5565b005b34801561071f57600080fd5b5061073a6004803603810190610735919061310c565b61134b565b005b34801561074857600080fd5b50610751611361565b60405161075e9190612dba565b60405180910390f35b34801561077357600080fd5b5061077c6113a4565b6040516107899190612baa565b60405180910390f35b34801561079e57600080fd5b506107b960048036038101906107b491906131ed565b6113b7565b005b3480156107c757600080fd5b506107d0611419565b6040516107dd9190612c5e565b60405180910390f35b3480156107f257600080fd5b5061080d60048036038101906108089190612cb6565b6114a7565b60405161081a9190612c5e565b60405180910390f35b34801561082f57600080fd5b50610838611600565b6040516108459190612dba565b60405180910390f35b34801561085a57600080fd5b50610875600480360381019061087091906130c3565b611606565b005b34801561088357600080fd5b5061089e60048036038101906108999190613270565b611628565b6040516108ab9190612baa565b60405180910390f35b3480156108c057600080fd5b506108db60048036038101906108d691906130c3565b6116bc565b005b3480156108e957600080fd5b5061090460048036038101906108ff9190612e81565b6116de565b005b60007f780e9d63000000000000000000000000000000000000000000000000000000007bffffffffffffffffffffffffffffffffffffffffffffffffffffffff1916827bffffffffffffffffffffffffffffffffffffffffffffffffffffffff19161480610979575061097882611762565b5b9050919050565b60606000805461098f906132df565b80601f01602080910402602001604051908101604052809291908181526020018280546109bb906132df565b8015610a085780601f106109dd57610100808354040283529160200191610a08565b820191906000526020600020905b8154815290600101906020018083116109eb57829003601f168201915b5050505050905090565b6000610a1d82611844565b6004600083815260200190815260200160002060009054906101000a900473ffffffffffffffffffffffffffffffffffffffff169050919050565b60138054610a65906132df565b80601f0160208091040260200160405190810160405280929190818152602001828054610a91906132df565b8015610ade5780601f10610ab357610100808354040283529160200191610ade565b820191906000526020600020905b815481529060010190602001808311610ac157829003601f168201915b505050505081565b6000610af182610f73565b90508073ffffffffffffffffffffffffffffffffffffffff168373ffffffffffffffffffffffffffffffffffffffff161415610b62576040517f08c379a0000000000000000000000000000000000000000000000000000000008152600401610b5990613383565b60405180910390fd5b8073ffffffffffffffffffffffffffffffffffffffff16610b8161188f565b73ffffffffffffffffffffffffffffffffffffffff161480610bb05750610baf81610baa61188f565b611628565b5b610bef576040517f08c379a0000000000000000000000000000000000000000000000000000000008152600401610be690613415565b60405180910390fd5b610bf98383611897565b505050565b600d5481565b6000600880549050905090565b60105481565b600f5481565b610c2e610c2861188f565b82611950565b610c6d576040517f08c379a0000000000000000000000000000000000000000000000000000000008152600401610c64906134a7565b60405180910390fd5b610c788383836119e5565b505050565b610c85611c4c565b80601260006101000a81548160ff02191690831515021790555050565b6000610cad83611025565b8210610cee576040517f08c379a0000000000000000000000000000000000000000000000000000000008152600401610ce590613539565b60405180910390fd5b600660008473ffffffffffffffffffffffffffffffffffffffff1673ffffffffffffffffffffffffffffffffffffffff168152602001908152602001600020600083815260200190815260200160002054905092915050565b610d4f611c4c565b60003373ffffffffffffffffffffffffffffffffffffffff1647604051610d759061358a565b60006040518083038185875af1925050503d8060008114610db2576040519150601f19603f3d011682016040523d82523d6000602084013e610db7565b606091505b5050905080610dc557600080fd5b50565b610de3838383604051806020016040528060008152506113b7565b505050565b60606000610df583611025565b905060008167ffffffffffffffff811115610e1357610e12612f98565b5b604051908082528060200260200182016040528015610e415781602001602082028036833780820191505090505b50905060005b82811015610e8b57610e598582610ca2565b828281518110610e6c57610e6b61359f565b5b6020026020010181815250508080610e83906135fd565b915050610e47565b508092505050919050565b610e9e611c4c565b80600d8190555050565b610eb0611c4c565b80601260016101000a81548160ff02191690831515021790555050565b6000610ed7610c04565b8210610f18576040517f08c379a0000000000000000000000000000000000000000000000000000000008152600401610f0f906136b8565b60405180910390fd5b60088281548110610f2c57610f2b61359f565b5b90600052602060002001549050919050565b601260019054906101000a900460ff1681565b610f59611c4c565b80600b9080519060200190610f6f929190612a53565b5050565b6000806002600084815260200190815260200160002060009054906101000a900473ffffffffffffffffffffffffffffffffffffffff169050600073ffffffffffffffffffffffffffffffffffffffff168173ffffffffffffffffffffffffffffffffffffffff16141561101c576040517f08c379a000000000000000000000000000000000000000000000000000000000815260040161101390613724565b60405180910390fd5b80915050919050565b60008073ffffffffffffffffffffffffffffffffffffffff168273ffffffffffffffffffffffffffffffffffffffff161415611096576040517f08c379a000000000000000000000000000000000000000000000000000000000815260040161108d906137b6565b60405180910390fd5b600360008373ffffffffffffffffffffffffffffffffffffffff1673ffffffffffffffffffffffffffffffffffffffff168152602001908152602001600020549050919050565b6110e5611c4c565b6110ef6000611cca565b565b6110f9611c4c565b80600f8190555050565b60115481565b6000600a60009054906101000a900473ffffffffffffffffffffffffffffffffffffffff16905090565b606060018054611142906132df565b80601f016020809104026020016040519081016040528092919081815260200182805461116e906132df565b80156111bb5780601f10611190576101008083540402835291602001916111bb565b820191906000526020600020905b81548152906001019060200180831161119e57829003601f168201915b5050505050905090565b6011546010546111d591906137d6565b421015611217576040517f08c379a000000000000000000000000000000000000000000000000000000000815260040161120e90613878565b60405180910390fd5b600361122233611025565b10611262576040517f08c379a0000000000000000000000000000000000000000000000000000000008152600401611259906138e4565b60405180910390fd5b600061126c610c04565b9050601260009054906101000a900460ff161561128857600080fd5b6000821161129557600080fd5b600f548211156112a457600080fd5b600e5482826112b391906137d6565b11156112be57600080fd5b6112c6611109565b73ffffffffffffffffffffffffffffffffffffffff163373ffffffffffffffffffffffffffffffffffffffff16146113135781600d546113069190613904565b34101561131257600080fd5b5b60005b828110156113465761133333828461132e91906137d6565b611d90565b808061133e906135fd565b915050611316565b505050565b61135d61135661188f565b8383611dae565b5050565b600060115460105461137391906137d6565b42101561139c574260115460105461138b91906137d6565b611395919061395e565b90506113a1565b600090505b90565b601260009054906101000a900460ff1681565b6113c86113c261188f565b83611950565b611407576040517f08c379a00000000000000000000000000000000000000000000000000000000081526004016113fe906134a7565b60405180910390fd5b61141384848484611f1b565b50505050565b600c8054611426906132df565b80601f0160208091040260200160405190810160405280929190818152602001828054611452906132df565b801561149f5780601f106114745761010080835404028352916020019161149f565b820191906000526020600020905b81548152906001019060200180831161148257829003601f168201915b505050505081565b60606114b282611f77565b6114f1576040517f08c379a00000000000000000000000000000000000000000000000000000000081526004016114e890613a04565b60405180910390fd5b60001515601260019054906101000a900460ff161515141561159f576013805461151a906132df565b80601f0160208091040260200160405190810160405280929190818152602001828054611546906132df565b80156115935780601f1061156857610100808354040283529160200191611593565b820191906000526020600020905b81548152906001019060200180831161157657829003601f168201915b505050505090506115fb565b60006115a9611fe3565b905060008151116115c957604051806020016040528060008152506115f7565b806115d384612075565b600c6040516020016115e793929190613af4565b6040516020818303038152906040525b9150505b919050565b600e5481565b61160e611c4c565b80600c9080519060200190611624929190612a53565b5050565b6000600560008473ffffffffffffffffffffffffffffffffffffffff1673ffffffffffffffffffffffffffffffffffffffff16815260200190815260200160002060008373ffffffffffffffffffffffffffffffffffffffff1673ffffffffffffffffffffffffffffffffffffffff16815260200190815260200160002060009054906101000a900460ff16905092915050565b6116c4611c4c565b80601390805190602001906116da929190612a53565b5050565b6116e6611c4c565b600073ffffffffffffffffffffffffffffffffffffffff168173ffffffffffffffffffffffffffffffffffffffff161415611756576040517f08c379a000000000000000000000000000000000000000000000000000000000815260040161174d90613b97565b60405180910390fd5b61175f81611cca565b50565b60007f80ac58cd000000000000000000000000000000000000000000000000000000007bffffffffffffffffffffffffffffffffffffffffffffffffffffffff1916827bffffffffffffffffffffffffffffffffffffffffffffffffffffffff1916148061182d57507f5b5e139f000000000000000000000000000000000000000000000000000000007bffffffffffffffffffffffffffffffffffffffffffffffffffffffff1916827bffffffffffffffffffffffffffffffffffffffffffffffffffffffff1916145b8061183d575061183c826121d6565b5b9050919050565b61184d81611f77565b61188c576040517f08c379a000000000000000000000000000000000000000000000000000000000815260040161188390613724565b60405180910390fd5b50565b600033905090565b816004600083815260200190815260200160002060006101000a81548173ffffffffffffffffffffffffffffffffffffffff021916908373ffffffffffffffffffffffffffffffffffffffff160217905550808273ffffffffffffffffffffffffffffffffffffffff1661190a83610f73565b73ffffffffffffffffffffffffffffffffffffffff167f8c5be1e5ebec7d5bd14f71427d1e84f3dd0314c0f7b2291e5b200ac8c7c3b92560405160405180910390a45050565b60008061195c83610f73565b90508073ffffffffffffffffffffffffffffffffffffffff168473ffffffffffffffffffffffffffffffffffffffff16148061199e575061199d8185611628565b5b806119dc57508373ffffffffffffffffffffffffffffffffffffffff166119c484610a12565b73ffffffffffffffffffffffffffffffffffffffff16145b91505092915050565b8273ffffffffffffffffffffffffffffffffffffffff16611a0582610f73565b73ffffffffffffffffffffffffffffffffffffffff1614611a5b576040517f08c379a0000000000000000000000000000000000000000000000000000000008152600401611a5290613c29565b60405180910390fd5b600073ffffffffffffffffffffffffffffffffffffffff168273ffffffffffffffffffffffffffffffffffffffff161415611acb576040517f08c379a0000000000000000000000000000000000000000000000000000000008152600401611ac290613cbb565b60405180910390fd5b611ad6838383612240565b611ae1600082611897565b6001600360008573ffffffffffffffffffffffffffffffffffffffff1673ffffffffffffffffffffffffffffffffffffffff1681526020019081526020016000206000828254611b31919061395e565b925050819055506001600360008473ffffffffffffffffffffffffffffffffffffffff1673ffffffffffffffffffffffffffffffffffffffff1681526020019081526020016000206000828254611b8891906137d6565b92505081905550816002600083815260200190815260200160002060006101000a81548173ffffffffffffffffffffffffffffffffffffffff021916908373ffffffffffffffffffffffffffffffffffffffff160217905550808273ffffffffffffffffffffffffffffffffffffffff168473ffffffffffffffffffffffffffffffffffffffff167fddf252ad1be2c89b69c2b068fc378daa952ba7f163c4a11628f55a4df523b3ef60405160405180910390a4611c47838383612354565b505050565b611c5461188f565b73ffffffffffffffffffffffffffffffffffffffff16611c72611109565b73ffffffffffffffffffffffffffffffffffffffff1614611cc8576040517f08c379a0000000000000000000000000000000000000000000000000000000008152600401611cbf90613d27565b60405180910390fd5b565b6000600a60009054906101000a900473ffffffffffffffffffffffffffffffffffffffff16905081600a60006101000a81548173ffffffffffffffffffffffffffffffffffffffff021916908373ffffffffffffffffffffffffffffffffffffffff1602179055508173ffffffffffffffffffffffffffffffffffffffff168173ffffffffffffffffffffffffffffffffffffffff167f8be0079c531659141344cd1fd0a4f28419497f9722a3daafe3b4186f6b6457e060405160405180910390a35050565b611daa828260405180602001604052806000815250612359565b5050565b8173ffffffffffffffffffffffffffffffffffffffff168373ffffffffffffffffffffffffffffffffffffffff161415611e1d576040517f08c379a0000000000000000000000000000000000000000000000000000000008152600401611e1490613d93565b60405180910390fd5b80600560008573ffffffffffffffffffffffffffffffffffffffff1673ffffffffffffffffffffffffffffffffffffffff16815260200190815260200160002060008473ffffffffffffffffffffffffffffffffffffffff1673ffffffffffffffffffffffffffffffffffffffff16815260200190815260200160002060006101000a81548160ff0219169083151502179055508173ffffffffffffffffffffffffffffffffffffffff168373ffffffffffffffffffffffffffffffffffffffff167f17307eab39ab6107e8899845ad3d59bd9653f200f220920489ca2b5937696c3183604051611f0e9190612baa565b60405180910390a3505050565b611f268484846119e5565b611f32848484846123b4565b611f71576040517f08c379a0000000000000000000000000000000000000000000000000000000008152600401611f6890613e25565b60405180910390fd5b50505050565b60008073ffffffffffffffffffffffffffffffffffffffff166002600084815260200190815260200160002060009054906101000a900473ffffffffffffffffffffffffffffffffffffffff1673ffffffffffffffffffffffffffffffffffffffff1614159050919050565b6060600b8054611ff2906132df565b80601f016020809104026020016040519081016040528092919081815260200182805461201e906132df565b801561206b5780601f106120405761010080835404028352916020019161206b565b820191906000526020600020905b81548152906001019060200180831161204e57829003601f168201915b5050505050905090565b606060008214156120bd576040518060400160405280600181526020017f300000000000000000000000000000000000000000000000000000000000000081525090506121d1565b600082905060005b600082146120ef5780806120d8906135fd565b915050600a826120e89190613e74565b91506120c5565b60008167ffffffffffffffff81111561210b5761210a612f98565b5b6040519080825280601f01601f19166020018201604052801561213d5781602001600182028036833780820191505090505b5090505b600085146121ca57600182612156919061395e565b9150600a856121659190613ea5565b603061217191906137d6565b60f81b8183815181106121875761218661359f565b5b60200101907effffffffffffffffffffffffffffffffffffffffffffffffffffffffffffff1916908160001a905350600a856121c39190613e74565b9450612141565b8093505050505b919050565b60007f01ffc9a7000000000000000000000000000000000000000000000000000000007bffffffffffffffffffffffffffffffffffffffffffffffffffffffff1916827bffffffffffffffffffffffffffffffffffffffffffffffffffffffff1916149050919050565b61224b83838361254b565b600073ffffffffffffffffffffffffffffffffffffffff168373ffffffffffffffffffffffffffffffffffffffff16141561228e5761228981612550565b6122cd565b8173ffffffffffffffffffffffffffffffffffffffff168373ffffffffffffffffffffffffffffffffffffffff16146122cc576122cb8382612599565b5b5b600073ffffffffffffffffffffffffffffffffffffffff168273ffffffffffffffffffffffffffffffffffffffff1614156123105761230b81612706565b61234f565b8273ffffffffffffffffffffffffffffffffffffffff168273ffffffffffffffffffffffffffffffffffffffff161461234e5761234d82826127d7565b5b5b505050565b505050565b6123638383612856565b61237060008484846123b4565b6123af576040517f08c379a00000000000000000000000000000000000000000000000000000000081526004016123a690613e25565b60405180910390fd5b505050565b60006123d58473ffffffffffffffffffffffffffffffffffffffff16612a30565b1561253e578373ffffffffffffffffffffffffffffffffffffffff1663150b7a026123fe61188f565b8786866040518563ffffffff1660e01b81526004016124209493929190613f2b565b602060405180830381600087803b15801561243a57600080fd5b505af192505050801561246b57506040513d601f19601f820116820180604052508101906124689190613f8c565b60015b6124ee573d806000811461249b576040519150601f19603f3d011682016040523d82523d6000602084013e6124a0565b606091505b506000815114156124e6576040517f08c379a00000000000000000000000000000000000000000000000000000000081526004016124dd90613e25565b60405180910390fd5b805181602001fd5b63150b7a0260e01b7bffffffffffffffffffffffffffffffffffffffffffffffffffffffff1916817bffffffffffffffffffffffffffffffffffffffffffffffffffffffff191614915050612543565b600190505b949350505050565b505050565b6008805490506009600083815260200190815260200160002081905550600881908060018154018082558091505060019003906000526020600020016000909190919091505550565b600060016125a684611025565b6125b0919061395e565b9050600060076000848152602001908152602001600020549050818114612695576000600660008673ffffffffffffffffffffffffffffffffffffffff1673ffffffffffffffffffffffffffffffffffffffff168152602001908152602001600020600084815260200190815260200160002054905080600660008773ffffffffffffffffffffffffffffffffffffffff1673ffffffffffffffffffffffffffffffffffffffff168152602001908152602001600020600084815260200190815260200160002081905550816007600083815260200190815260200160002081905550505b6007600084815260200190815260200160002060009055600660008573ffffffffffffffffffffffffffffffffffffffff1673ffffffffffffffffffffffffffffffffffffffff16815260200190815260200160002060008381526020019081526020016000206000905550505050565b6000600160088054905061271a919061395e565b905060006009600084815260200190815260200160002054905060006008838154811061274a5761274961359f565b5b90600052602060002001549050806008838154811061276c5761276b61359f565b5b9060005260206000200181905550816009600083815260200190815260200160002081905550600960008581526020019081526020016000206000905560088054806127bb576127ba613fb9565b5b6001900381819060005260206000200160009055905550505050565b60006127e283611025565b905081600660008573ffffffffffffffffffffffffffffffffffffffff1673ffffffffffffffffffffffffffffffffffffffff168152602001908152602001600020600083815260200190815260200160002081905550806007600084815260200190815260200160002081905550505050565b600073ffffffffffffffffffffffffffffffffffffffff168273ffffffffffffffffffffffffffffffffffffffff1614156128c6576040517f08c379a00000000000000000000000000000000000000000000000000000000081526004016128bd90614034565b60405180910390fd5b6128cf81611f77565b1561290f576040517f08c379a0000000000000000000000000000000000000000000000000000000008152600401612906906140a0565b60405180910390fd5b61291b60008383612240565b6001600360008473ffffffffffffffffffffffffffffffffffffffff1673ffffffffffffffffffffffffffffffffffffffff168152602001908152602001600020600082825461296b91906137d6565b92505081905550816002600083815260200190815260200160002060006101000a81548173ffffffffffffffffffffffffffffffffffffffff021916908373ffffffffffffffffffffffffffffffffffffffff160217905550808273ffffffffffffffffffffffffffffffffffffffff16600073ffffffffffffffffffffffffffffffffffffffff167fddf252ad1be2c89b69c2b068fc378daa952ba7f163c4a11628f55a4df523b3ef60405160405180910390a4612a2c60008383612354565b5050565b6000808273ffffffffffffffffffffffffffffffffffffffff163b119050919050565b828054612a5f906132df565b90600052602060002090601f016020900481019282612a815760008555612ac8565b82601f10612a9a57805160ff1916838001178555612ac8565b82800160010185558215612ac8579182015b82811115612ac7578251825591602001919060010190612aac565b5b509050612ad59190612ad9565b5090565b5b80821115612af2576000816000905550600101612ada565b5090565b6000604051905090565b600080fd5b600080fd5b60007fffffffff0000000000000000000000000000000000000000000000000000000082169050919050565b612b3f81612b0a565b8114612b4a57600080fd5b50565b600081359050612b5c81612b36565b92915050565b600060208284031215612b7857612b77612b00565b5b6000612b8684828501612b4d565b91505092915050565b60008115159050919050565b612ba481612b8f565b82525050565b6000602082019050612bbf6000830184612b9b565b92915050565b600081519050919050565b600082825260208201905092915050565b60005b83811015612bff578082015181840152602081019050612be4565b83811115612c0e576000848401525b50505050565b6000601f19601f8301169050919050565b6000612c3082612bc5565b612c3a8185612bd0565b9350612c4a818560208601612be1565b612c5381612c14565b840191505092915050565b60006020820190508181036000830152612c788184612c25565b905092915050565b6000819050919050565b612c9381612c80565b8114612c9e57600080fd5b50565b600081359050612cb081612c8a565b92915050565b600060208284031215612ccc57612ccb612b00565b5b6000612cda84828501612ca1565b91505092915050565b600073ffffffffffffffffffffffffffffffffffffffff82169050919050565b6000612d0e82612ce3565b9050919050565b612d1e81612d03565b82525050565b6000602082019050612d396000830184612d15565b92915050565b612d4881612d03565b8114612d5357600080fd5b50565b600081359050612d6581612d3f565b92915050565b60008060408385031215612d8257612d81612b00565b5b6000612d9085828601612d56565b9250506020612da185828601612ca1565b9150509250929050565b612db481612c80565b82525050565b6000602082019050612dcf6000830184612dab565b92915050565b600080600060608486031215612dee57612ded612b00565b5b6000612dfc86828701612d56565b9350506020612e0d86828701612d56565b9250506040612e1e86828701612ca1565b9150509250925092565b612e3181612b8f565b8114612e3c57600080fd5b50565b600081359050612e4e81612e28565b92915050565b600060208284031215612e6a57612e69612b00565b5b6000612e7884828501612e3f565b91505092915050565b600060208284031215612e9757612e96612b00565b5b6000612ea584828501612d56565b91505092915050565b600081519050919050565b600082825260208201905092915050565b6000819050602082019050919050565b612ee381612c80565b82525050565b6000612ef58383612eda565b60208301905092915050565b6000602082019050919050565b6000612f1982612eae565b612f238185612eb9565b9350612f2e83612eca565b8060005b83811015612f5f578151612f468882612ee9565b9750612f5183612f01565b925050600181019050612f32565b5085935050505092915050565b60006020820190508181036000830152612f868184612f0e565b905092915050565b600080fd5b600080fd5b7f4e487b7100000000000000000000000000000000000000000000000000000000600052604160045260246000fd5b612fd082612c14565b810181811067ffffffffffffffff82111715612fef57612fee612f98565b5b80604052505050565b6000613002612af6565b905061300e8282612fc7565b919050565b600067ffffffffffffffff82111561302e5761302d612f98565b5b61303782612c14565b9050602081019050919050565b82818337600083830152505050565b600061306661306184613013565b612ff8565b90508281526020810184848401111561308257613081612f93565b5b61308d848285613044565b509392505050565b600082601f8301126130aa576130a9612f8e565b5b81356130ba848260208601613053565b91505092915050565b6000602082840312156130d9576130d8612b00565b5b600082013567ffffffffffffffff8111156130f7576130f6612b05565b5b61310384828501613095565b91505092915050565b6000806040838503121561312357613122612b00565b5b600061313185828601612d56565b925050602061314285828601612e3f565b9150509250929050565b600067ffffffffffffffff82111561316757613166612f98565b5b61317082612c14565b9050602081019050919050565b600061319061318b8461314c565b612ff8565b9050828152602081018484840111156131ac576131ab612f93565b5b6131b7848285613044565b509392505050565b600082601f8301126131d4576131d3612f8e565b5b81356131e484826020860161317d565b91505092915050565b6000806000806080858703121561320757613206612b00565b5b600061321587828801612d56565b945050602061322687828801612d56565b935050604061323787828801612ca1565b925050606085013567ffffffffffffffff81111561325857613257612b05565b5b613264878288016131bf565b91505092959194509250565b6000806040838503121561328757613286612b00565b5b600061329585828601612d56565b92505060206132a685828601612d56565b9150509250929050565b7f4e487b7100000000000000000000000000000000000000000000000000000000600052602260045260246000fd5b600060028204905060018216806132f757607f821691505b6020821081141561330b5761330a6132b0565b5b50919050565b7f4552433732313a20617070726f76616c20746f2063757272656e74206f776e6560008201527f7200000000000000000000000000000000000000000000000000000000000000602082015250565b600061336d602183612bd0565b915061337882613311565b604082019050919050565b6000602082019050818103600083015261339c81613360565b9050919050565b7f4552433732313a20617070726f76652063616c6c6572206973206e6f7420746f60008201527f6b656e206f776e6572206e6f7220617070726f76656420666f7220616c6c0000602082015250565b60006133ff603e83612bd0565b915061340a826133a3565b604082019050919050565b6000602082019050818103600083015261342e816133f2565b9050919050565b7f4552433732313a2063616c6c6572206973206e6f7420746f6b656e206f776e6560008201527f72206e6f7220617070726f766564000000000000000000000000000000000000602082015250565b6000613491602e83612bd0565b915061349c82613435565b604082019050919050565b600060208201905081810360008301526134c081613484565b9050919050565b7f455243373231456e756d657261626c653a206f776e657220696e646578206f7560008201527f74206f6620626f756e6473000000000000000000000000000000000000000000602082015250565b6000613523602b83612bd0565b915061352e826134c7565b604082019050919050565b6000602082019050818103600083015261355281613516565b9050919050565b600081905092915050565b50565b6000613574600083613559565b915061357f82613564565b600082019050919050565b600061359582613567565b9150819050919050565b7f4e487b7100000000000000000000000000000000000000000000000000000000600052603260045260246000fd5b7f4e487b7100000000000000000000000000000000000000000000000000000000600052601160045260246000fd5b600061360882612c80565b91507fffffffffffffffffffffffffffffffffffffffffffffffffffffffffffffffff82141561363b5761363a6135ce565b5b600182019050919050565b7f455243373231456e756d657261626c653a20676c6f62616c20696e646578206f60008201527f7574206f6620626f756e64730000000000000000000000000000000000000000602082015250565b60006136a2602c83612bd0565b91506136ad82613646565b604082019050919050565b600060208201905081810360008301526136d181613695565b9050919050565b7f4552433732313a20696e76616c696420746f6b656e2049440000000000000000600082015250565b600061370e601883612bd0565b9150613719826136d8565b602082019050919050565b6000602082019050818103600083015261373d81613701565b9050919050565b7f4552433732313a2061646472657373207a65726f206973206e6f74206120766160008201527f6c6964206f776e65720000000000000000000000000000000000000000000000602082015250565b60006137a0602983612bd0565b91506137ab82613744565b604082019050919050565b600060208201905081810360008301526137cf81613793565b9050919050565b60006137e182612c80565b91506137ec83612c80565b9250827fffffffffffffffffffffffffffffffffffffffffffffffffffffffffffffffff03821115613821576138206135ce565b5b828201905092915050565b7f4d696e74696e67206e6f7720616c6c6f77656420796574000000000000000000600082015250565b6000613862601783612bd0565b915061386d8261382c565b602082019050919050565b6000602082019050818103600083015261389181613855565b9050919050565b7f4f6e6c792033206d696e747320706572206163636f756e740000000000000000600082015250565b60006138ce601883612bd0565b91506138d982613898565b602082019050919050565b600060208201905081810360008301526138fd816138c1565b9050919050565b600061390f82612c80565b915061391a83612c80565b9250817fffffffffffffffffffffffffffffffffffffffffffffffffffffffffffffffff0483118215151615613953576139526135ce565b5b828202905092915050565b600061396982612c80565b915061397483612c80565b925082821015613987576139866135ce565b5b828203905092915050565b7f4552433732314d657461646174613a2055524920717565727920666f72206e6f60008201527f6e6578697374656e7420746f6b656e0000000000000000000000000000000000602082015250565b60006139ee602f83612bd0565b91506139f982613992565b604082019050919050565b60006020820190508181036000830152613a1d816139e1565b9050919050565b600081905092915050565b6000613a3a82612bc5565b613a448185613a24565b9350613a54818560208601612be1565b80840191505092915050565b60008190508160005260206000209050919050565b60008154613a82816132df565b613a8c8186613a24565b94506001821660008114613aa75760018114613ab857613aeb565b60ff19831686528186019350613aeb565b613ac185613a60565b60005b83811015613ae357815481890152600182019150602081019050613ac4565b838801955050505b50505092915050565b6000613b008286613a2f565b9150613b0c8285613a2f565b9150613b188284613a75565b9150819050949350505050565b7f4f776e61626c653a206e6577206f776e657220697320746865207a65726f206160008201527f6464726573730000000000000000000000000000000000000000000000000000602082015250565b6000613b81602683612bd0565b9150613b8c82613b25565b604082019050919050565b60006020820190508181036000830152613bb081613b74565b9050919050565b7f4552433732313a207472616e736665722066726f6d20696e636f72726563742060008201527f6f776e6572000000000000000000000000000000000000000000000000000000602082015250565b6000613c13602583612bd0565b9150613c1e82613bb7565b604082019050919050565b60006020820190508181036000830152613c4281613c06565b9050919050565b7f4552433732313a207472616e7366657220746f20746865207a65726f2061646460008201527f7265737300000000000000000000000000000000000000000000000000000000602082015250565b6000613ca5602483612bd0565b9150613cb082613c49565b604082019050919050565b60006020820190508181036000830152613cd481613c98565b9050919050565b7f4f776e61626c653a2063616c6c6572206973206e6f7420746865206f776e6572600082015250565b6000613d11602083612bd0565b9150613d1c82613cdb565b602082019050919050565b60006020820190508181036000830152613d4081613d04565b9050919050565b7f4552433732313a20617070726f766520746f2063616c6c657200000000000000600082015250565b6000613d7d601983612bd0565b9150613d8882613d47565b602082019050919050565b60006020820190508181036000830152613dac81613d70565b9050919050565b7f4552433732313a207472616e7366657220746f206e6f6e20455243373231526560008201527f63656976657220696d706c656d656e7465720000000000000000000000000000602082015250565b6000613e0f603283612bd0565b9150613e1a82613db3565b604082019050919050565b60006020820190508181036000830152613e3e81613e02565b9050919050565b7f4e487b7100000000000000000000000000000000000000000000000000000000600052601260045260246000fd5b6000613e7f82612c80565b9150613e8a83612c80565b925082613e9a57613e99613e45565b5b828204905092915050565b6000613eb082612c80565b9150613ebb83612c80565b925082613ecb57613eca613e45565b5b828206905092915050565b600081519050919050565b600082825260208201905092915050565b6000613efd82613ed6565b613f078185613ee1565b9350613f17818560208601612be1565b613f2081612c14565b840191505092915050565b6000608082019050613f406000830187612d15565b613f4d6020830186612d15565b613f5a6040830185612dab565b8181036060830152613f6c8184613ef2565b905095945050505050565b600081519050613f8681612b36565b92915050565b600060208284031215613fa257613fa1612b00565b5b6000613fb084828501613f77565b91505092915050565b7f4e487b7100000000000000000000000000000000000000000000000000000000600052603160045260246000fd5b7f4552433732313a206d696e7420746f20746865207a65726f2061646472657373600082015250565b600061401e602083612bd0565b915061402982613fe8565b602082019050919050565b6000602082019050818103600083015261404d81614011565b9050919050565b7f4552433732313a20746f6b656e20616c7265616479206d696e74656400000000600082015250565b600061408a601c83612bd0565b915061409582614054565b602082019050919050565b600060208201905081810360008301526140b98161407d565b905091905056fea26469706673582212209f8be6c8554655661e6d3c3631009675772becec33cbfe7e9f502b30a87d68dd64736f6c63430008090033",
  "immutableReferences": {},
  "source": "// SPDX-License-Identifier: MIT\npragma solidity ^0.8.0;\n\nimport \"@openzeppelin/contracts/utils/introspection/IERC165.sol\";\nimport \"@openzeppelin/contracts/token/ERC721/IERC721.sol\";\nimport \"@openzeppelin/contracts/token/ERC721/extensions/IERC721Enumerable.sol\";\nimport \"@openzeppelin/contracts/utils/introspection/ERC165.sol\";\nimport \"@openzeppelin/contracts/utils/Strings.sol\";\nimport \"@openzeppelin/contracts/utils/Address.sol\";\nimport \"@openzeppelin/contracts/token/ERC721/extensions/IERC721Metadata.sol\";\nimport \"@openzeppelin/contracts/token/ERC721/IERC721Receiver.sol\";\nimport \"@openzeppelin/contracts/utils/Context.sol\";\nimport \"@openzeppelin/contracts/token/ERC721/ERC721.sol\";\nimport \"@openzeppelin/contracts/token/ERC721/extensions/ERC721Enumerable.sol\";\nimport \"@openzeppelin/contracts/access/Ownable.sol\";\n\ncontract BisonSolo is ERC721Enumerable, Ownable {\n    using Strings for uint256;\n\n    string baseURI;\n    string public baseExtension = \".json\";\n    uint256 public cost;\n    uint256 public maxSupply;\n    uint256 public maxMintAmount = 3;\n    uint256 public timeDeployed;\n    uint256 public allowMintingAfter = 0;\n    bool public isPaused = false;\n    bool public isRevealed = true;\n    string public notRevealedUri;\n\n    constructor(\n        string memory _name,\n        string memory _symbol,\n        uint256 _cost,\n        uint256 _maxSupply,\n        uint256 _allowMintingOn,\n        string memory _initBaseURI,\n        string memory _initNotRevealedUri\n    ) ERC721(_name, _symbol) {\n        if (_allowMintingOn > block.timestamp) {\n            allowMintingAfter = _allowMintingOn - block.timestamp;\n        }\n\n        cost = _cost;\n        maxSupply = _maxSupply;\n        timeDeployed = block.timestamp;\n\n        setBaseURI(_initBaseURI);\n        setNotRevealedURI(_initNotRevealedUri);\n    }\n\n    // internal\n    function _baseURI() internal view virtual override returns (string memory) {\n        return baseURI;\n    }\n\n    // public\n    function mint(uint256 _mintAmount) public payable {\n        require(\n            block.timestamp >= timeDeployed + allowMintingAfter,\n            \"Minting now allowed yet\"\n        );\n\n        require(balanceOf(msg.sender) < 3, \"Only 3 mints per account\");\n\n        uint256 supply = totalSupply();\n        require(!isPaused);\n        require(_mintAmount > 0);\n        require(_mintAmount <= maxMintAmount);\n        require(supply + _mintAmount <= maxSupply);\n\n        if (msg.sender != owner()) {\n            require(msg.value >= cost * _mintAmount);\n        }\n\n        for (uint256 i = 0; i < _mintAmount; i++) {\n            _safeMint(msg.sender, supply + i);\n        }\n    }\n\n    function walletOfOwner(address _owner)\n        public\n        view\n        returns (uint256[] memory)\n    {\n        uint256 ownerTokenCount = balanceOf(_owner);\n        uint256[] memory tokenIds = new uint256[](ownerTokenCount);\n        for (uint256 i; i < ownerTokenCount; i++) {\n            tokenIds[i] = tokenOfOwnerByIndex(_owner, i);\n        }\n        return tokenIds;\n    }\n\n    function tokenURI(uint256 tokenId)\n        public\n        view\n        virtual\n        override\n        returns (string memory)\n    {\n        require(\n            _exists(tokenId),\n            \"ERC721Metadata: URI query for nonexistent token\"\n        );\n\n        if (isRevealed == false) {\n            return notRevealedUri;\n        }\n\n        string memory currentBaseURI = _baseURI();\n        return\n            bytes(currentBaseURI).length > 0\n                ? string(\n                    abi.encodePacked(\n                        currentBaseURI,\n                        tokenId.toString(),\n                        baseExtension\n                    )\n                )\n                : \"\";\n    }\n\n    function getSecondsUntilMinting() public view returns (uint256) {\n        if (block.timestamp < timeDeployed + allowMintingAfter) {\n            return (timeDeployed + allowMintingAfter) - block.timestamp;\n        } else {\n            return 0;\n        }\n    }\n\n    // Only Owner Functions\n    function setIsRevealed(bool _state) public onlyOwner {\n        isRevealed = _state;\n    }\n\n    function setCost(uint256 _newCost) public onlyOwner {\n        cost = _newCost;\n    }\n\n    function setmaxMintAmount(uint256 _newmaxMintAmount) public onlyOwner {\n        maxMintAmount = _newmaxMintAmount;\n    }\n\n    function setNotRevealedURI(string memory _notRevealedURI) public onlyOwner {\n        notRevealedUri = _notRevealedURI;\n    }\n\n    function setBaseURI(string memory _newBaseURI) public onlyOwner {\n        baseURI = _newBaseURI;\n    }\n\n    function setBaseExtension(string memory _newBaseExtension)\n        public\n        onlyOwner\n    {\n        baseExtension = _newBaseExtension;\n    }\n\n    function setIsPaused(bool _state) public onlyOwner {\n        isPaused = _state;\n    }\n\n    function withdraw() public payable onlyOwner {\n        (bool success, ) = payable(msg.sender).call{\n            value: address(this).balance\n        }(\"\");\n        require(success);\n    }\n}\n",
  "sourcePath": "/Users/c0/Documents/CODE/NFT-Tests/03-BisonSolo/src/contracts/BisonSolo.sol",
  "compiler": {
    "name": "solc",
    "version": "0.8.9+commit.e5eed63a.Emscripten.clang"
  },
  "schemaVersion": "3.4.11",
  "updatedAt": "2022-12-20T04:52:02.961Z",
  "networkType": "ethereum",
  "devdoc": {
    "kind": "dev",
    "methods": {
      "approve(address,uint256)": {
        "details": "See {IERC721-approve}."
      },
      "balanceOf(address)": {
        "details": "See {IERC721-balanceOf}."
      },
      "getApproved(uint256)": {
        "details": "See {IERC721-getApproved}."
      },
      "isApprovedForAll(address,address)": {
        "details": "See {IERC721-isApprovedForAll}."
      },
      "name()": {
        "details": "See {IERC721Metadata-name}."
      },
      "owner()": {
        "details": "Returns the address of the current owner."
      },
      "ownerOf(uint256)": {
        "details": "See {IERC721-ownerOf}."
      },
      "renounceOwnership()": {
        "details": "Leaves the contract without owner. It will not be possible to call `onlyOwner` functions anymore. Can only be called by the current owner. NOTE: Renouncing ownership will leave the contract without an owner, thereby removing any functionality that is only available to the owner."
      },
      "safeTransferFrom(address,address,uint256)": {
        "details": "See {IERC721-safeTransferFrom}."
      },
      "safeTransferFrom(address,address,uint256,bytes)": {
        "details": "See {IERC721-safeTransferFrom}."
      },
      "setApprovalForAll(address,bool)": {
        "details": "See {IERC721-setApprovalForAll}."
      },
      "supportsInterface(bytes4)": {
        "details": "See {IERC165-supportsInterface}."
      },
      "symbol()": {
        "details": "See {IERC721Metadata-symbol}."
      },
      "tokenByIndex(uint256)": {
        "details": "See {IERC721Enumerable-tokenByIndex}."
      },
      "tokenOfOwnerByIndex(address,uint256)": {
        "details": "See {IERC721Enumerable-tokenOfOwnerByIndex}."
      },
      "tokenURI(uint256)": {
        "details": "See {IERC721Metadata-tokenURI}."
      },
      "totalSupply()": {
        "details": "See {IERC721Enumerable-totalSupply}."
      },
      "transferFrom(address,address,uint256)": {
        "details": "See {IERC721-transferFrom}."
      },
      "transferOwnership(address)": {
        "details": "Transfers ownership of the contract to a new account (`newOwner`). Can only be called by the current owner."
      }
    },
    "version": 1
  },
  "userdoc": {
    "kind": "user",
    "methods": {},
    "version": 1
  }
}